:100000000C9462000C948A000C948A000C948A0070
:100010000C948A000C948A000C948A000C948A0038
:100020000C948A000C948A000C948A000C948A0028
:100030000C948A000C948A000C948A000C948A0018
:100040000C9428080C948A000C94F6070C94D007A2
:100050000C948A000C948A000C948A000C948A00F8
:100060000C9472080C948A00000000002400270001
:100070002A0000000000250028002B0000000008D6
:10008000000201000003040700000000000000005F
:1000900000000000230026002900040404040404D6
:1000A0000404020202020202030303030303010227
:1000B00004081020408001020408102001020408F6
:1000C0001020910911241FBECFEFD8E0DEBFCDBFB5
:1000D00011E0A0E0B1E0E0EFFDE102C005900D927B
:1000E000A03CB107D9F723E0A0ECB1E001C01D921C
:1000F000AC34B207E1F710E0C2E6D0E004C02197CB
:10010000FE010E94F00EC136D107C9F70E94F9091D
:100110000C94F60E0C940000CF92DF92EF92FF92B7
:10012000CF93DF93B0913303A0E08111AB2F809187
:10013000340390E0880F991FAC0140575F4FC09087
:100140003903D0903A03E0903B03F0903C0330E059
:1001500020E0FA01C591D491E881B90190E080E0F6
:10016000EB23EA130AC02F5F3F4F6C157D058E0508
:100170009F0578F36FEF7FEFCB01DF91CF91FF9079
:10018000EF90DF90CF90089508950895DC01ED91F0
:10019000FC910190F081E02D0994AF92BF92CF9233
:1001A000DF92EF92FF920F931F93CF93DF936C0137
:1001B0007B018B01040F151FEB015E01AE18BF0818
:1001C000C017D10759F06991D601ED91FC910190CA
:1001D000F081E02DC6010995892B79F7C501DF91E2
:1001E000CF911F910F91FF90EF90DF90CF90BF9034
:1001F000AF900895FC01538D448D252F30E0842F5E
:1002000090E0821B930B541710F0CF96089501973E
:100210000895FC01918D828D981761F0A28DAE0F2B
:10022000BF2FB11D5D968C91928D9F5F9F73928FB2
:1002300090E008958FEF9FEF0895FC01918D828DDE
:10024000981731F0828DE80FF11D858D90E00895AB
:100250008FEF9FEF0895FC01918D228D892F90E003
:10026000805C9F4F821B91098F739927089583E8C3
:1002700092E00E942B0121E0892B09F420E0822FDB
:10028000089580E090E0892B29F00E9437018111C8
:100290000C9400000895FC01A48DA80FB92FB11D86
:1002A000A35ABF4F2C91848D90E001968F739927AC
:1002B000848FA689B7892C93A089B1898C9183708A
:1002C00080648C93938D848D981306C00288F38983
:1002D000E02D80818F7D80830895EF92FF920F93B0
:1002E0001F93CF93DF93EC0181E0888F9B8D8C8DE2
:1002F00098131AC0E889F989808185FF15C09FB7D6
:10030000F894EE89FF896083E889F9898081837098
:10031000806480839FBF81E090E0DF91CF911F9147
:100320000F91FF90EF900895F62E0B8D10E00F5F68
:100330001F4F0F731127E02E8C8D8E110CC00FB63E
:1003400007FCFACFE889F989808185FFF5CFCE01D6
:100350000E944B01F1CFEB8DEC0FFD2FF11DE35A05
:10036000FF4FF0829FB7F8940B8FEA89FB89808159
:100370008062CFCFCF93DF93EC01888D8823B9F0D3
:10038000AA89BB89E889F9898C9185FD03C08081A0
:1003900086FD0DC00FB607FCF7CF8C9185FFF2CF1D
:1003A000808185FFEDCFCE010E944B01E9CFDF9127
:1003B000CF91089590E0FC01E458FF4F2491FC0197
:1003C000E255FF4F3491FC01E656FF4FE491EE23D6
:1003D000C9F0222339F0233001F1A8F4213019F1BA
:1003E000223029F1F0E0EE0FFF1FEE58FF4FA591EC
:1003F000B4918FB7F894EC91611126C030953E23EB
:100400003C938FBF08952730A9F02830C9F02430DD
:1004100049F7809180008F7D03C0809180008F77A5
:1004200080938000DFCF84B58F7784BDDBCF84B528
:100430008F7DFBCF8091B0008F778093B000D2CFBB
:100440008091B0008F7DF9CF3E2BDACFCF93DF9331
:1004500090E0FC01E255FF4F249186569F4FFC012E
:1004600084918823D1F090E0880F991FFC01E8590E
:10047000FF4FA591B491FC01EE58FF4FC591D49167
:10048000623071F49FB7F8943C91822F809583235A
:100490008C93E8812E2B28839FBFDF91CF91089505
:1004A0008FB7F894EC912E2B2C938FBFF6CF8E50F4
:1004B000806480937C0080917A00806480937A00CD
:1004C00080917A0086FDFCCF809178009091790030
:1004D00008953FB7F8948091730290917402A091AF
:1004E0007502B091760226B5A89B05C02F3F19F082
:1004F0000196A11DB11D3FBFBA2FA92F982F8827A4
:10050000BC01CD01620F711D811D911D42E0660F7E
:10051000771F881F991F4A95D1F708958F929F9250
:10052000AF92BF92CF92DF92EF92FF924B015C01AC
:100530000E9469026B017C010E9469026C197D09AD
:100540008E099F09683E734081059105A8F321E05B
:10055000821A9108A108B10888EEC80E83E0D81E5F
:10056000E11CF11C81149104A104B10429F7FF904E
:10057000EF90DF90CF90BF90AF909F908F900895B5
:10058000CF92DF92EF92FF920F931F93CF93DF935F
:10059000CDB7DEB7C054D1400FB6F894DEBF0FBE62
:1005A000CDBF2FB7F89480917F0290918002A091E7
:1005B0008102B09182022FBF4091350350913603E2
:1005C00060913703709138038C019D01041B150B5A
:1005D000260B370BB901A801403D57406105710555
:1005E00090F480913D03C05CDE4F0FB6F894DEBFFF
:1005F0000FBECDBFDF91CF911F910F91FF90EF9074
:10060000DF90CF9008958093350390933603A093A5
:100610003703B09338031092300310922F031092D7
:100620002E0310922D0310922C0362E0809131036F
:100630000E94260261E070E080E090E00E948E025D
:1006400061E0809131030E94260260E080913103D5
:100650000E94DA01809132038551823020F58BE2CD
:1006600091E10197F1F762E0809131030E94260247
:1006700080913E0390E08230910538F0880F991FF9
:10068000880F991F05970197F1F7F89480E00E9471
:100690008C006F3F7F4F8F4F9F4F61F410923D034F
:1006A000789480E0A0CF64E170E080E090E00E9468
:1006B0008E02D9CF81E00E948C006F3F7F4F8F4F19
:1006C0009F4F61F38E010F5F1F4F6E018FEBC81AB2
:1006D0008EEFD80A780180E00E948C00F7016083D9
:1006E00071838283938381E00E948C00F70164838D
:1006F000758386839783F8E0EF0EF11CEC14FD04FC
:1007000051F7789430E020E0F801C080D180E28099
:10071000F3804481558166817781FFEFCF16DF0634
:10072000EF06FF0631F04F3F8FEF58076807780755
:1007300019F410923D03B5CFF90183E0F595E795E3
:100740008A95E1F7E45DFC4F8081880FC416D506D9
:10075000E606F70610F180832F5F3F4F085F1F4FBB
:100760002832310589F64091300320912C03809185
:100770002D03280F3327331F80912E03280F311D9F
:1007800080912F03820F932F911D992748171906E7
:1007900081F681E080933D0326CF8160DCCF089510
:1007A00020910102260F3327331F21323105ECF44B
:1007B00020914A02FC0190E080E0243069F082E060
:1007C0000895A09101022191AC014F515E4FA40FF9
:1007D000B52FB11D2C930196861798F380910102D5
:1007E000680F6093010280E0089581E008951092FF
:1007F0004A0281E0809349021092240261E082E182
:100800000E94DA0161E083E10E94DA01E9EBF0E0A5
:1008100080818E7F808380818D7F808388E4809338
:10082000B80085E48093BC000895CF93DF9391E0F6
:100830009093E0018823B9F0C091B800D091BA003C
:100840008091BC008A7B8093BC0060E082E10E94C2
:10085000DA0160E083E10E94DA010E94F703D0939D
:10086000BA00C093B800DF91CF9108950895E09148
:100870007E0280917D02E81730F4F0E0E054FE4FF4
:10088000808190E008958FEF9FEF089590917E0210
:1008900080917D022FEF3FEF981748F4E92FF0E0A9
:1008A000E054FE4F208130E09F5F90937E02C901AB
:1008B000089580917D0290917E02891B990B089585
:1008C000CF92DF92EF92FF920F931F93CF93DF931C
:1008D0007C01CB018A0120915002222389F0EB0197
:1008E0006B01C40ED51ECC15DD0569F06991D701E9
:1008F000ED91FC910190F081E02DC7010995F3CFB6
:10090000642F0E94D003C801DF91CF911F910F91F6
:10091000FF90EF90DF90CF900895CF93DF931F92D9
:10092000CDB7DEB76983209150022223F9F02091E0
:100930007B02203258F021E030E0FC013383228337
:1009400090E080E00F90DF91CF91089580917C023C
:10095000E82FF0E0EF5AFD4F998190838F5F8093ED
:100960007C0280937B0281E090E0ECCF61E0CE01DD
:1009700001960E94D003F7CFCF92DF92EF92FF92C1
:100980000F931F93CF93DF93FC01C48121E0209349
:100990005002C093710210927C0210927B028485F7
:1009A000682B80E293E00E948D04D0917B02D132CB
:1009B00008F092C00E9469026B017C0180914A029A
:1009C000811165C082E080934A0281E080934902F0
:1009D0008FEF8093480210924702D0934602A1E520
:1009E000B2E0E6E2F2E080E0D81385C01092250282
:1009F00080912502CC0FC82BC09325028091240240
:100A0000813009F07CC0109224020E9469026B01BF
:100A10007C01809125028093BB0080914C029091D3
:100A20004D02A0914E02B0914F02892B8A2B8B2B45
:100A300099F00E94690200914C0210914D022091A0
:100A40004E0230914F026C197D098E099F090617DD
:100A5000170728073907E0F18091BC0083FDD9CF43
:100A600085EC8093BC000E9469026B017C0180913F
:100A70004A02823009F445C0809148028F3F61F1FB
:100A800080914802803241F18091480225C08091D6
:100A90004C0290914D02A0914E02B0914F02892BD1
:100AA0008A2B8B2B09F48ACF0E94690200914C0299
:100AB00010914D0220914E0230914F026C197D0928
:100AC0008E099F09061717072807390708F076CF00
:100AD00080914B020E94150410927C0210927B02BE
:100AE00010925002DF91CF911F910F91FF90EF90E4
:100AF000DF90CF9008959D9191938F5F75CF85EE94
:100B0000B0CF80914C0290914D02A0914E02B091D5
:100B10004F02892B8A2B8B2B09F4A9CF0E946902E3
:100B200000914C0210914D0220914E0230914F02E3
:100B30006C197D098E099F090617170728073907C1
:100B400008F095CFC5CF90E080E008950F931F93F4
:100B5000CF938C01C62F0E94BC046C2F6460C80127
:100B60000E94BC046C2F6B7FC8010E94BC0483EC04
:100B700090E00197F1F7CF911F910F9108950F9396
:100B80001F93CF93DF938C01D62FC42F607F642BEC
:100B90000E94A60580E1D89FB00111246C2BC801EA
:100BA000DF91CF911F910F910C94A605CF93DF9306
:100BB000CDB7DEB728970FB6F894DEBF0FBECDBF16
:100BC00098E0E0E0F1E0DE01119601900D929A9537
:100BD000E1F790914703981708F48FEF90E0880FA2
:100BE000991F21E030E02C0F3D1F820F931FFC0165
:100BF0006081606840E08FE393E028960FB6F89438
:100C0000DEBF0FBECDBFDF91CF910C94BF0540E09A
:100C100061E08FE393E00E94BF058BE39FE10197C2
:100C2000F1F780914803882319F080E00C94D605F1
:100C3000089541E00E94BF0581E090E00895FB0126
:100C400001900020E9F73197AF01461B570BDC01FB
:100C5000ED91FC910280F381E02D09948F929F9297
:100C6000AF92BF92EF92FF920F931F93CF93DF93B8
:100C7000CDB7DEB7A1970FB6F894DEBF0FBECDBFDC
:100C80007C01FA01CB0119A2223008F42AE08E017E
:100C90000F5D1F4F822E912CB12CA12CBF01A501FD
:100CA00094010E94CE0EF901CA016A300CF5605D14
:100CB000D8016E938D01232B242B252B79F790E0FF
:100CC00080E0109721F0BD01C7010E941F06A19688
:100CD0000FB6F894DEBF0FBECDBFDF91CF911F914D
:100CE0000F91FF90EF90BF90AF909F908F900895DD
:100CF000695CDECFCF92DF92EF92FF920F931F934A
:100D0000CF93DF936B01770FEE08FF08F7FE1BC050
:100D1000EC016DE20E94C6008C0144275527BA0100
:100D20004C195D096E097F092AE0CE010E942E064A
:100D3000800F911FDF91CF911F910F91FF90EF9046
:100D4000DF90CF9008952AE0B701A601DF91CF91FF
:100D50001F910F91FF90EF90DF90CF900C942E0693
:100D60002F923F924F925F926F927F928F929F92BB
:100D7000AF92BF92CF92DF92EF92FF921F93CF93E9
:100D8000DF93EC016A017B01722EAB019601CB016E
:100D9000B6010E94C90E68E371E0811126C04601C8
:100DA0005701E894B7F82FEF3FEF4FE75FE7C50132
:100DB000B4010E94C90E81110CC02FEF3FEF4FE725
:100DC0005FE7C501B4010E94FF0C6CE371E01816E7
:100DD00064F02FEF3FEF4FE75FE4C701B6010E94D9
:100DE000570E1816B4F460E471E0CE01DF91CF9194
:100DF0001F91FF90EF90DF90CF90BF90AF909F90AA
:100E00008F907F906F905F904F903F902F900C94B9
:100E10001F062FEF3FEF4FE75FECC701B6010E94BF
:100E2000FF0C87FDE0CF20E030E0A901C701B6014B
:100E30000E94FF0C312C212C87FF09C06DE2CE01EE
:100E40000E94C6001C01F7FAF094F7F8F09410E045
:100E500060E070E080E09FE3711641F020E030E058
:100E600040E251E40E94040D1F5FF6CFA7019601F6
:100E70000E94930C2B013C010E94760D4B015C01FA
:100E80002AE0BC01A401CE010E942E067C01E20CE6
:100E9000F31C1123C1F1C501B4010E94A50D9B01F2
:100EA000AC01C301B2010E94920C4B015C016EE2E5
:100EB000CE010E94C600E80EF91E115020F120E07C
:100EC00030E040E251E4C501B4010E945C0E2B0108
:100ED0003C010E94760D4B01B12CA12C2AE0B501FA
:100EE000A401CE010E942E06E80EF91EC501B40130
:100EF0000E94A50D9B01AC01C301B2010E94920C9E
:100F00004B015C01DACFC701DF91CF911F91FF90B8
:100F1000EF90DF90CF90BF90AF909F908F907F9099
:100F20006F905F904F903F902F9008950C941F0604
:100F300085ED8093BC0080914C0290914D02A09170
:100F40004E02B0914F020796A11DB11D23E0B69548
:100F5000A795979587952A95D1F72091BC0024FDF8
:100F600003C010924A02089540914C0250914D02E4
:100F700060914E0270914F02452B462B472B69F32F
:100F80000097A105B10541F025E32A95F1F700008E
:100F90000197A109B109E1CF80914B020C9415048E
:100FA0001F920F920FB60F9211242F933F934F93DE
:100FB0005F936F937F938F939F93AF93BF93EF93C1
:100FC000FF9383E892E00E944B01FF91EF91BF9164
:100FD000AF919F918F917F916F915F914F913F91D1
:100FE0002F910F900FBE0F901F9018951F920F9288
:100FF0000FB60F9211242F938F939F93EF93FF932C
:10100000E0919302F09194028081E0919902F09135
:101010009A0282FD1BC0908180919C028F5F8F732A
:1010200020919D02821741F0E0919C02F0E0ED5783
:10103000FD4F958F80939C02FF91EF919F918F912F
:101040002F910F900FBE0F901F9018958081F4CFB5
:101050001F920F920FB60F9211242F933F938F93ED
:101060009F93AF93BF9380917F0290918002A09154
:101070008102B09182023091720223E0230F2D375A
:1010800058F50196A11DB11D2093720280937F0235
:1010900090938002A0938102B093820280917302A8
:1010A00090917402A0917502B09176020196A11DF3
:1010B000B11D8093730290937402A0937502B09354
:1010C0007602BF91AF919F918F913F912F910F9099
:1010D0000FBE0F901F90189526E8230F0296A11DB2
:1010E000B11DD2CF1F920F920FB60F9211242F93E2
:1010F0003F934F935F936F937F938F939F93AF93A0
:10110000BF93EF93FF938091B900887F803609F4F5
:101110004AC0F0F5883209F4A7C018F5803109F407
:101120009BC0B8F4882309F4F9C0883009F494C04E
:10113000FF91EF91BF91AF919F918F917F916F91AF
:101140005F914F913F912F910F900FBE0F901F9085
:101150001895883109F488C0803251F7809348028D
:1011600014C0803409F49DC040F48033B9F388334F
:10117000F9F68093480285ECB0C0803509F485C04B
:10118000883509F496C0883499F60E949807D0CF24
:10119000883909F48CC038F5883729F050F488363E
:1011A00011F0803729F683E080934A0210922302DF
:1011B00057C0883809F47BC0803919F0803809F0AD
:1011C000B7CF80912302803208F071C0E0912302F2
:1011D00081E08E0F809323028091BB00F0E0ED5FF1
:1011E000FD4F80833DC0803B39F0E0F4803A09F444
:1011F00079C0883A09F09CCF84E080934A0210922B
:10120000020210920102E0917902F0917A020995AE
:101210008091010281110FC081E080930102109240
:10122000E10109C0803C09F4A6CF883C09F4A3CFB2
:10123000883B09F07DCFE091020281E08E0F809320
:101240000202F0E0EF51FE4F80818093BB0090914D
:1012500002028091010229C0809125028093BB0087
:1012600085EC8093BC0064CF909147028091460248
:10127000981758F5E091470281E08E0F809347025E
:10128000F0E0EA5DFD4F8081E9CFE091470281E027
:101290008E0F809347028091BB00F0E0EA5DFD4F26
:1012A000808390914702809146029817C8F285E8A2
:1012B000D8CFE091470281E08E0F80934702809162
:1012C000BB00F0E0EA5DFD4F80838091490281110F
:1012D0005CCF81E08093240284EA8093BC0010926A
:1012E0004A0226CF85EC8093BC0010924A0280917E
:1012F0002302803230F4E0912302F0E0ED5FFD4FF5
:1013000010826091230270E0E0917702F091780200
:1013100083E092E00995109223020ACF10924802CE
:1013200034CFE3E8F2E01382128288EE93E0A0E08B
:10133000B0E084839583A683B7832CE031E03183CA
:10134000208325EC30E03587248724EC30E0378794
:10135000268720EC30E0318B208B21EC30E0338B82
:10136000228B22EC30E0358B248B26EC30E0378B5F
:10137000268B118E128E138E148EE0E2F3E0138210
:10138000128284839583A683B7838EE191E0918353
:101390008083EFE3F3E01382128280E391E0918394
:1013A0008083118687E2848380E1828782E083875D
:1013B0001486ACE2B3E015968C9315978BE01696E5
:1013C0008C931697E0EBF0E0E4911796EC93179767
:1013D000ECE9F0E0E4911896EC93189740E85EE3AE
:1013E00060E070E01D964D935D936D937C935097F4
:1013F0000895789484B5826084BD84B5816084BD8D
:1014000085B5826085BD85B5816085BD80916E00A2
:10141000816080936E0010928100809181008260D3
:101420008093810080918100816080938100809110
:1014300080008160809380008091B10084608093FF
:10144000B1008091B00081608093B00080917A00FB
:10145000846080937A0080917A00826080937A0021
:1014600080917A00816080937A0080917A00806810
:1014700080937A001092C100E0919302F09194025F
:1014800082E08083E0918F02F09190021082E091DF
:101490009102F09192028FEC808310929B02E09176
:1014A0009702F091980286E08083E0919502F09196
:1014B0009602808180618083E0919502F09196028E
:1014C000808188608083E0919502F091960280810E
:1014D00080688083E0919502F091960280818F7DF3
:1014E000808310927E0210927D0210927C021092F4
:1014F0007B020E94F70384EC90E090937A02809341
:10150000790285EC90E090937802809377021092B4
:10151000440380914A03823018F098E0909344038A
:101520008093470362E370E080E090E00E948E02C7
:1015300060914B038FE393E00E94BC0468EE73E07C
:1015400080E090E00E948E0260E38FE393E00E94CF
:10155000A605CBE4D6E4CE010197F1F760E38FE373
:1015600093E00E94A6052197F1F760E38FE393E0F3
:101570000E94A60583E592E00197F1F760E28FE310
:1015800093E00E94A60560914403606240E08FE30F
:1015900093E00E94BF0584E08093450340E06CE047
:1015A0008FE393E00E94BF050E94070682E08093CC
:1015B000460340E066E08FE393E00E94BF0540E011
:1015C00062E08FE393E00E94BF058BE39FE1019708
:1015D000F1F788E080934B0360E08FE393E00E9493
:1015E000BC0462E0809131030E9426022FB7F89478
:1015F00080917F0290918002A0918102B09182023D
:101600002FBF805D9740A109B10980933503909366
:101610003603A0933703B093380387E380933E03E8
:1016200080E00E94D60564E471E08FE393E00E94BD
:10163000960764E571E083E892E00E941F066EE67B
:1016400071E083E892E00E941F0668E572E080E0A6
:1016500090E00E948E020E94070661E771E08FE32E
:1016600093E00E94960760ED77E080E090E00E94B2
:101670008E020E94070630E0832E30E0932E8EE02B
:101680000E9457025C018FE00E9457028C0180E1AA
:101690000E945702EC010E94C002882341F0809111
:1016A00032038C3009F462C048F48B3001F1C12C54
:1016B000D12C90ECE92E9FE7F92E43C08551823062
:1016C000B0F770902E03672D70E0762F662766279F
:1016D0007F7780912F03682B90E080E00E94A50D1A
:1016E0002DEC3CEC4CEC5DE30E945C0E5BC0609129
:1016F0002E0370E090E080E00E94A50D6B017C015C
:1017000070902F0377FE0AC0AC019B0160E070E08F
:1017100080E89FEB0E94920C6B017C01672D6F703B
:1017200070E090E080E00E94A70D2DEC3CEC4CECCA
:101730005DE30E945C0EA70196010E94930C6B0171
:101740007C010E94C002882351F0809132038B30CB
:1017500030F08D3080F18551823008F4D1C0412CB9
:10176000512C80EC682E8FE7782E43C070902E03AA
:10177000672D70E090E080E00E94A50D6B017C0178
:1017800060912F036F7070E090E080E00E94A70DE1
:101790002DEC3CEC4CEC5DE30E945C0EA701960145
:1017A0000E94930C6B017C0177FECBCFF7FAF0948B
:1017B000F7F8F094C6CF60912D0370E090E080E0E0
:1017C0000E94A70D2DEC3CEC4CEC5DE30E945C0EFE
:1017D0002B013C0160912C0370E090E080E00E94BE
:1017E000A70D9B01AC01C301B2010E94930C2B0118
:1017F0003C0180E00E94D60562E871E08FE393E04F
:101800000E949607B5018FE393E00E947A0667E88D
:1018100071E08FE393E00E949607B8018FE393E0B5
:101820000E947A0681E00E94D6056CE871E08FE3A1
:1018300093E00E949607BE018FE393E00E947A0630
:101840006FE871E08FE393E00E94960722E0B70112
:10185000A6018FE393E00E94B00663E971E083E89C
:1018600092E00E949607B50183E892E00E947A0612
:101870006AE971E083E892E00E949607B80183E884
:1018800092E00E947A0662EA71E083E892E00E94A8
:101890009607BE0183E892E00E947A066DEA71E045
:1018A00083E892E00E94960722E0B701A60183E850
:1018B00092E00E94B00667EB71E083E892E00E943C
:1018C000960722E0B301A20183E892E00E94B006ED
:1018D0006EE671E083E892E00E941F0668EE73E016
:1018E00080E090E00E948E028114910409F4C7CE3A
:1018F0000E943701882309F4C2CE0E940000BFCEA7
:1019000060912C0370912D0376276727762790E04E
:1019100080E00E94A50D2DEC3CEC4CEC5DE30E94B8
:101920005C0E65CF5058BB27AA270E94AA0C0C94C6
:101930001D0E0E940F0E38F00E94160E20F039F492
:101940009F3F19F426F40C940C0E0EF4E095E7FB7F
:101950000C94060EE92F0E942E0E58F3BA17620758
:1019600073078407950720F079F4A6F50C94500EC0
:101970000EF4E0950B2EBA2FA02D0B01B9019001AA
:101980000C01CA01A0011124FF27591B99F0593FEE
:1019900050F4503E68F11A16F040A22F232F342F36
:1019A0004427585FF3CF469537952795A795F04084
:1019B0005395C9F77EF41F16BA0B620B730B840B99
:1019C000BAF09150A1F0FF0FBB1F661F771F881F51
:1019D000C2F70EC0BA0F621F731F841F48F48795A9
:1019E00077956795B795F7959E3F08F0B0CF93959B
:1019F000880F08F09927EE0F9795879508950E9414
:101A0000E20D08F481E008950E94180D0C941D0E5B
:101A10000E94160E58F00E940F0E40F029F45F3F0E
:101A200029F00C94060E51110C94510E0C940C0ECE
:101A30000E942E0E68F39923B1F3552391F3951B61
:101A4000550BBB27AA2762177307840738F09F5FDF
:101A50005F4F220F331F441FAA1FA9F335D00E2E4C
:101A60003AF0E0E832D091505040E695001CCAF7B9
:101A70002BD0FE2F29D0660F771F881FBB1F26177C
:101A800037074807AB07B0E809F0BB0B802DBF0153
:101A9000FF2793585F4F3AF09E3F510578F00C9422
:101AA000060E0C94510E5F3FE4F3983ED4F38695F6
:101AB00077956795B795F7959F5FC9F7880F911D43
:101AC0009695879597F90895E1E0660F771F881F2F
:101AD000BB1F621773078407BA0720F0621B730BE2
:101AE000840BBA0BEE1F88F7E09508950E94360E1E
:101AF00088F09F5798F0B92F9927B751B0F0E1F0CF
:101B0000660F771F881F991F1AF0BA95C9F714C07E
:101B1000B13091F00E94500EB1E008950C94500E37
:101B2000672F782F8827B85F39F0B93FCCF38695B7
:101B300077956795B395D9F73EF490958095709514
:101B400061957F4F8F4F9F4F0895E89409C097FB91
:101B50003EF490958095709561957F4F8F4F9F4F84
:101B60009923A9F0F92F96E9BB279395F6958795C8
:101B700077956795B795F111F8CFFAF4BB0F11F48B
:101B800060FF1BC06F5F7F4F8F4F9F4F16C0882332
:101B900011F096E911C0772321F09EE8872F762F68
:101BA00005C0662371F096E8862F70E060E02AF0A9
:101BB0009A95660F771F881FDAF7880F9695879595
:101BC00097F90895990F0008550FAA0BE0E8FEEF6A
:101BD00016161706E807F907C0F012161306E407F1
:101BE000F50798F0621B730B840B950B39F40A26EA
:101BF00061F0232B242B252B21F408950A2609F4C8
:101C0000A140A6958FEF811D811D089597F99F67CB
:101C100080E870E060E008959FEF80EC0895002474
:101C20000A941616170618060906089500240A9441
:101C300012161306140605060895092E0394000CC7
:101C400011F4882352F0BB0F40F4BF2B11F460FF56
:101C500004C06F5F7F4F8F4F9F4F089557FD90587F
:101C6000440F551F59F05F3F71F04795880F97FB60
:101C7000991F61F09F3F79F087950895121613061A
:101C80001406551FF2CF4695F1DF08C01616170649
:101C90001806991FF1CF869571056105089408957E
:101CA000E894BB2766277727CB0197F908950E9410
:101CB000E20D08F48FEF08950E946F0E0C941D0E34
:101CC0000E940F0E38F00E94160E20F0952311F09E
:101CD0000C94060E0C940C0E11240C94510E0E94C0
:101CE0002E0E70F3959FC1F3950F50E0551F629F24
:101CF000F001729FBB27F00DB11D639FAA27F00D65
:101D0000B11DAA1F649F6627B00DA11D661F829F8B
:101D10002227B00DA11D621F739FB00DA11D621F70
:101D2000839FA00D611D221F749F3327A00D611D8D
:101D3000231F849F600D211D822F762F6A2F11246F
:101D40009F5750409AF0F1F088234AF0EE0FFF1FA2
:101D5000BB1F661F771F881F91505040A9F79E3FF9
:101D6000510580F00C94060E0C94510E5F3FE4F385
:101D7000983ED4F3869577956795B795F795E7954F
:101D80009F5FC1F7FE2B880F911D9695879597F958
:101D900008950E94E20D880B990B0895A1E21A2E76
:101DA000AA1BBB1BFD010DC0AA1FBB1FEE1FFF1FFF
:101DB000A217B307E407F50720F0A21BB30BE40B4F
:101DC000F50B661F771F881F991F1A9469F7609596
:101DD0007095809590959B01AC01BD01CF01089550
:101DE000EE0FFF1F0590F491E02D0994F894FFCFBA
:101DF0000000400014005400000000006D01CD0000
:101E0000FA00BA012B0109011D01000000008D0438
:101E10006004A3053604590446043704000000009A
:101E20001906CD00A305CF036E616E00696E6600D2
:101E30006F7666005761726D696E67204D512D3760
:101E40002E2E2E004D512D372073656E736F72202C
:101E50007761726D696E672075702E2E2E000D0AE7
:101E60000046697368706F6E64204D6F6E69746FA1
:101E700072004D51373A002050483A00573A00203E
:101E8000543A004D512D373A2000207C2070483ABA
:101E90002000207C2057617465723A2000207C204D
:101EA00054656D703A2000207C2048756D3A200002
:00000001FF
